:020000040000FA
:100000000C9463000C948B000C948B000C948B006C
:100010000C948B000C948B000C948B000C948B0034
:100020000C948B000C948B000C948B000C948B0024
:100030000C948B000C948B000C948B000C948B0014
:100040000C94E2050C948B000C94B0050C948A057A
:100050000C948B000C948B000C948B000C948B00F4
:100060000C942C060C948B00000000002400270048
:100070002A0000000000250028002B0000000000DE
:1000800023002600290004040404040404040202DA
:100090000202020203030303030301020408102007
:1000A0004080010204081020010204081020000012
:1000B0000008000201000003040700000000000027
:1000C00000004B07890A11241FBECFEFD8E0DEBF26
:1000D000CDBF23E0AEEAB1E001C01D92AC33B20760
:1000E000E1F711E0A0E0B1E0E0EEF9E102C0059037
:1000F0000D92AE3AB107D9F710E0C2E6D0E004C0E5
:100100002197FE010E94EB0AC136D107C9F70E9470
:10011000FD070C94E30C0C94000008950895AF9231
:10012000BF92CF92DF92EF92FF920F931F93CF93E4
:10013000DF936C017B018B01040F151FEB015E0146
:10014000AE18BF08C017D10759F06991D601ED91DB
:10015000FC910190F081E02DC6010995892B79F77A
:10016000C501DF91CF911F910F91FF90EF90DF902C
:10017000CF90BF90AF900895FC01538D448D252FF3
:1001800030E0842F90E0821B930B541710F0CF9631
:10019000089501970895FC01918D828D981761F063
:1001A000A28DAE0FBF2FB11D5D968C91928D9F5F7A
:1001B0009F73928F90E008958FEF9FEF0895FC0159
:1001C000918D828D981731F0828DE80FF11D858D0C
:1001D00090E008958FEF9FEF0895FC01918D228D9F
:1001E000892F90E0805C9F4F821B91098F73992724
:1001F00008958DE792E00E94ED0021E0892B09F43B
:1002000020E0822F089580E090E0892B29F00E9461
:10021000F90081110C9400000895FC01A48DA80F31
:10022000B92FB11DA35ABF4F2C91848D90E0019638
:100230008F739927848FA689B7892C93A089B18958
:100240008C91837080648C93938D848D981306C0F9
:100250000288F389E02D80818F7D80830895EF925D
:10026000FF920F931F93CF93DF93EC0181E0888F70
:100270009B8D8C8D98131AC0E889F989808185FF40
:1002800015C09FB7F894EE89FF896083E889F989E2
:1002900080818370806480839FBF81E090E0DF91E4
:1002A000CF911F910F91FF90EF900895F62E0B8D37
:1002B00010E00F5F1F4F0F731127E02E8C8D8E11F2
:1002C0000CC00FB607FCFACFE889F989808185FF59
:1002D000F5CFCE010E940D01F1CFEB8DEC0FFD2F7C
:1002E000F11DE35AFF4FF0829FB7F8940B8FEA8914
:1002F000FB8980818062CFCFCF93DF93EC01888D23
:100300008823B9F0AA89BB89E889F9898C9185FD90
:1003100003C0808186FD0DC00FB607FCF7CF8C911E
:1003200085FFF2CF808185FFEDCFCE010E940D01C8
:10033000E9CFDF91CF910895833081F028F48130A7
:1003400099F08230A9F008958730A9F08830C9F07B
:100350008430B1F4809180008F7D03C08091800053
:100360008F7780938000089584B58F7784BD08953A
:1003700084B58F7DFBCF8091B0008F778093B000E4
:1003800008958091B0008F7DF9CFCF93DF93282F10
:1003900030E0F901E255FF4F8491F901E656FF4F35
:1003A000D491F901EA57FF4FC491CC23A1F08111F8
:1003B0000E949C01EC2FF0E0EE0FFF1FE458FF4F6E
:1003C000A591B491EC91ED2381E090E009F480E0F7
:1003D000DF91CF91089580E090E0FACF1F93CF9303
:1003E000DF93282F30E0F901E255FF4F8491F901A6
:1003F000E656FF4FD491F901EA57FF4FC491CC2341
:10040000A9F0162F81110E949C01EC2FF0E0EE0F55
:10041000FF1FEE58FF4FA591B4918FB7F894EC9160
:10042000111108C0D095DE23DC938FBFDF91CF91EF
:100430001F910895DE2BF8CFCF93DF9390E0FC015E
:10044000E656FF4F24918A579F4FFC0184918823E1
:10045000D1F090E0880F991FFC01E859FF4FA5915A
:10046000B491FC01EE58FF4FC591D49161110EC0BB
:100470009FB7F8948C91E22FE0958E238C9328817E
:10048000E223E8839FBFDF91CF9108958FB7F8945F
:10049000EC91E22BEC938FBFF6CF3FB7F8948091AD
:1004A000610290916202A0916302B091640226B54C
:1004B000A89B05C02F3F19F00196A11DB11D3FBF9C
:1004C000BA2FA92F982F8827BC01CD01620F711D6B
:1004D000811D911D42E0660F771F881F991F4A9565
:1004E000D1F708958F929F92AF92BF92CF92DF92F1
:1004F000EF92FF924B015C010E944D026B017C0167
:100500000E944D026C197D098E099F09683E734057
:1005100081059105A8F321E0821A9108A108B1088C
:1005200088EEC80E83E0D81EE11CF11C81149104F2
:10053000A104B10429F7FF90EF90DF90CF90BF9016
:10054000AF909F908F90089508952091EF01260F0E
:100550003327331F21323105ECF420913802FC019E
:1005600090E080E0243069F082E00895A091EF01EE
:100570002191AC0141535E4FA40FB52FB11D2C93B7
:100580000196861798F38091EF01680F6093EF0151
:1005900080E0089581E008951092380281E0809310
:1005A00037021092120261E082E10E94EE0161E0E6
:1005B00083E10E94EE01E9EBF0E080818E7F808391
:1005C00080818D7F808388E48093B80085E4809368
:1005D000BC000895CF93DF9391E09093CE018823E0
:1005E000B9F0C091B800D091BA008091BC008A7B6C
:1005F0008093BC0060E082E10E94EE0160E083E154
:100600000E94EE010E94CC02D093BA00C093B800C1
:10061000DF91CF9108950895E0916C0280916B0273
:10062000E81730F4F0E0E255FE4F808190E0089545
:100630008FEF9FEF089590916C0280916B022FEFE6
:100640003FEF981748F4E92FF0E0E255FE4F208184
:1006500030E09F5F90936C02C901089580916B0216
:1006600090916C02891B990B0895CF92DF92EF92C3
:10067000FF920F931F93CF93DF937C01CB018A01ED
:1006800020913E02222389F0EB016B01C40ED51E9E
:10069000CC15DD0569F06991D701ED91FC910190D0
:1006A000F081E02DC7010995F3CF642F0E94A502C8
:1006B000C801DF91CF911F910F91FF90EF90DF90D4
:1006C000CF900895CF93DF931F92CDB7DEB76983A4
:1006D00020913E022223F9F020916902203258F045
:1006E00021E030E0FC013383228390E080E00F9032
:1006F000DF91CF91089580916A02E82FF0E0E15CEC
:10070000FD4F998190838F5F80936A028093690285
:1007100081E090E0ECCF61E0CE0101960E94A5025D
:10072000F7CFCF92DF92EF92FF920F931F93CF9369
:10073000DF93FC01C48121E020933E02C0935F025D
:1007400010926A02109269028385682B8AE193E015
:100750000E946203D0916902D13208F092C00E94D7
:100760004D026B017C0180913802811165C082E0ED
:100770008093380281E0809337028FEF80933602B6
:1007800010923502D0933402AFE3B2E0E4E1F2E03C
:1007900080E0D81385C01092130280911302CC0F11
:1007A000C82BC093130280911202813009F07CC0E3
:1007B000109212020E944D026B017C018091130283
:1007C0008093BB0080913A0290913B02A0913C0241
:1007D000B0913D02892B8A2B8B2B99F00E944D0200
:1007E00000913A0210913B0220913C0230913D026F
:1007F0006C197D098E099F09061717072807390705
:10080000E0F18091BC0083FDD9CF85EC8093BC00E2
:100810000E944D026B017C0180913802823009F404
:1008200045C0809136028F3F61F18091360280325F
:1008300041F18091360225C080913A0290913B02AD
:10084000A0913C02B0913D02892B8A2B8B2B09F49D
:100850008ACF0E944D0200913A0210913B022091F2
:100860003C0230913D026C197D098E099F090617E3
:1008700017072807390708F076CF809139020E94C0
:10088000EA0210926A021092690210923E02DF910F
:10089000CF911F910F91FF90EF90DF90CF9008952F
:1008A0009D9191938F5F75CF85EEB0CF80913A0285
:1008B00090913B02A0913C02B0913D02892B8A2B82
:1008C0008B2B09F4A9CF0E944D0200913A0210919E
:1008D0003B0220913C0230913D026C197D098E094A
:1008E0009F09061717072807390708F095CFC5CFC6
:1008F00090E080E008950F931F93CF938C01C62F53
:100900000E9491036C2F6460C8010E9491036C2FB8
:100910006B7FC8010E94910383EC90E00197F1F78F
:10092000CF911F910F9108950F931F93CF93DF9352
:100930008C01D62FC42F607F642B0E947B0480E142
:10094000D89FB00111246C2BC801DF91CF911F916A
:100950000F910C947B0440E061E08CE293E00E94F4
:1009600094048BE39FE10197F1F70895CF93DF9310
:10097000CDB7DEB728970FB6F894DEBF0FBECDBF58
:1009800098E0E6E0F1E0DE01119601900D929A9573
:10099000E1F790913403961708F46FEF262F30E0BB
:1009A000220F331F41E050E04C0F5D1F240F351F15
:1009B000F9016081680F606840E08CE293E028965E
:1009C0000FB6F894DEBF0FBECDBFDF91CF910C9470
:1009D000940441E00E94940481E090E00895FB01BA
:1009E00001900020E9F73197AF01461B570BDC015E
:1009F000ED91FC910280F381E02D09946EE371E0AA
:100A00008DE792E00C94EF048F929F92AF92BF9289
:100A1000EF92FF920F931F93CF93DF93CDB7DEB783
:100A2000A1970FB6F894DEBF0FBECDBF7C01FA01CF
:100A3000CB0119A2223008F42AE08E010F5D1F4F6E
:100A4000822E912CB12CA12CBF01A50194010E94F2
:100A5000C90AF901CA016A300CF5605DD8016E93CC
:100A60008D01232B242B252B79F790E080E0109724
:100A700021F0BD01C7010E94EF04A1960FB6F894C2
:100A8000DEBF0FBECDBFDF91CF911F910F91FF90C1
:100A9000EF90BF90AF909F908F900895695CDECFEC
:100AA0000C94EF0485ED8093BC0080913A02909104
:100AB0003B02A0913C02B0913D020796A11DB11DE1
:100AC00023E0B695A795979587952A95D1F720911C
:100AD000BC0024FD03C010923802089540913A02F0
:100AE00050913B0260913C0270913D02452B462B98
:100AF000472B69F30097A105B10541F025E32A953D
:100B0000F1F700000197A109B109E1CF8091390205
:100B10000C94EA021F920F920FB60F9211242F939A
:100B20003F934F935F936F937F938F939F93AF9375
:100B3000BF93EF93FF938DE792E00E940D01FF9129
:100B4000EF91BF91AF919F918F917F916F915F9145
:100B50004F913F912F910F900FBE0F901F901895BE
:100B60001F920F920FB60F9211242F938F939F9382
:100B7000EF93FF93E0918D02F0918E028081E091DE
:100B80009302F091940282FD1BC0908180919602A5
:100B90008F5F8F7320919702821741F0E091960248
:100BA000F0E0E358FD4F958F80939602FF91EF910F
:100BB0009F918F912F910F900FBE0F901F901895BE
:100BC0008081F4CF1F920F920FB60F9211242F93B2
:100BD0003F938F939F93AF93BF9380916D029091BA
:100BE0006E02A0916F02B09170023091600223E01A
:100BF000230F2D3758F50196A11DB11D20936002DA
:100C000080936D0290936E02A0936F02B093700276
:100C10008091610290916202A0916302B09164029E
:100C20000196A11DB11D8093610290936202A09371
:100C30006302B0936402BF91AF919F918F913F91F6
:100C40002F910F900FBE0F901F90189526E8230F3D
:100C50000296A11DB11DD2CF1F920F920FB60F9217
:100C600011242F933F934F935F936F937F938F93B1
:100C70009F93AF93BF93EF93FF938091B900887FC9
:100C8000803609F44AC0F0F5883209F4A7C018F597
:100C9000803109F49BC0B8F4882309F4F9C0883086
:100CA00009F494C0FF91EF91BF91AF919F918F9103
:100CB0007F916F915F914F913F912F910F900FBE58
:100CC0000F901F901895883109F488C0803251F731
:100CD0008093360214C0803409F49DC040F4803300
:100CE000B9F38833F9F68093360285ECB0C08035CD
:100CF00009F485C0883509F496C0883499F60E94B5
:100D00005205D0CF883909F48CC038F5883729F0DE
:100D100050F4883611F0803729F683E0809338024A
:100D20001092110257C0883809F47BC0803919F03D
:100D3000803809F0B7CF80911102803208F071C07D
:100D4000E091110281E08E0F809311028091BB002F
:100D5000F0E0EF50FE4F80833DC0803B39F0E0F47F
:100D6000803A09F479C0883A09F09CCF84E08093F6
:100D700038021092F0011092EF01E0916702F091B9
:100D8000680209958091EF0181110FC081E0809385
:100D9000EF011092CF0109C0803C09F4A6CF883C36
:100DA00009F4A3CF883B09F07DCFE091F00181E009
:100DB0008E0F8093F001F0E0E153FE4F808180932D
:100DC000BB009091F0018091EF0129C08091130246
:100DD0008093BB0085EC8093BC0064CF909135027A
:100DE00080913402981758F5E091350281E08E0F1A
:100DF00080933502F0E0EC5EFD4F8081E9CFE09119
:100E0000350281E08E0F809335028091BB00F0E0C7
:100E1000EC5EFD4F808390913502809134029817EB
:100E2000C8F285E8D8CFE091350281E08E0F80933B
:100E300035028091BB00F0E0EC5EFD4F8083809135
:100E4000370281115CCF81E08093120284EA8093A3
:100E5000BC001092380226CF85EC8093BC00109223
:100E6000380280911102803230F4E0911102F0E0FA
:100E7000EF50FE4F10826091110270E0E091650228
:100E8000F091660281EF91E00995109211020ACF6C
:100E90001092360234CF1092800210927F0288EEB8
:100EA00093E0A0E0B0E08093810290938202A0934F
:100EB0008302B093840222E131E030937E022093DA
:100EC0007D0225EC30E030938A022093890224ECE5
:100ED00030E030938C0220938B0220EC30E0309392
:100EE0008E0220938D0221EC30E03093900220930B
:100EF0008F0222EC30E0309392022093910226EC94
:100F000030E0309394022093930210929602109254
:100F10009702109298021092990210921D0310925B
:100F20001C0380931E0390931F03A0932003B09390
:100F3000210384E291E090931B0380931A031092A3
:100F40002F0310922E0386E391E090932D0380935C
:100F50002C0380E28093300380E18093350382E0AC
:100F600080933603109237031092270310922603C2
:100F7000109229031092280310922B0310922A0337
:100F800068E070E090E080E00E94160C009701F1AC
:100F9000909327038093260327E030E030932903C2
:100FA0002093280320912A0330912B03232B11F443
:100FB000FC01108287E090E090932B0380932A033A
:100FC00061E471E080912603909127030C94DC0C7E
:100FD0008091260390912703009711F00E948D0BBA
:100FE000109227031092260310922B0310922A03CB
:100FF00010922903109228030895789484B5826092
:1010000084BD84B5816084BD85B5826085BD85B5AC
:10101000816085BD80916E00816080936E0010922A
:1010200081008091810082608093810080918100A5
:101030008160809381008091800081608093800036
:101040008091B10084608093B1008091B000816094
:101050008093B00080917A00846080937A008091C0
:101060007A00826080937A0080917A008160809318
:101070007A0080917A00806880937A001092C10093
:10108000109272021092710210926C0210926B0216
:1010900010926A02109269020E94CC028DE890E0E0
:1010A00090936802809367028EE890E090936602C6
:1010B000809365021092310380913603823018F0DC
:1010C00098E0909331038093340362E370E080E012
:1010D00090E00E947202609137038CE293E00E94DC
:1010E000910368EE73E080E090E00E94720260E39A
:1010F0008CE293E00E947B04CBE4D6E4CE0101971E
:10110000F1F760E38CE293E00E947B042197F1F712
:1011100060E38CE293E00E947B0483E592E0019718
:10112000F1F760E28CE293E00E947B04609131036E
:10113000606240E08CE293E00E94940484E080933B
:10114000320340E06CE08CE293E00E9494040E9441
:10115000AB0412E01093330340E066E08CE293E0CE
:101160000E94940440E062E08CE293E00E949404C8
:10117000CBE3DFE1CE010197F1F788E080933703FD
:1011800060E08CE293E00E94910340E062E08CE238
:1011900093E00E9494042197F1F70E944D0260E0D1
:1011A00083E00E941C0261E088E00E941C0261E072
:1011B0008AE00E941C0261E089E00E941C0261E05A
:1011C00086E00E941C02E0918D02F0918E02108355
:1011D000E0918902F0918A021082E0918B02F091F5
:1011E0008C028FEC808310929502E0919102F09135
:1011F000920286E08083E0918F02F09190028081DC
:1012000080618083E0918F02F091900280818860FC
:101210008083E0918F02F0919002808180688083CA
:10122000E0918F02F091900280818F7D80830E94F7
:10123000AB0469E471E08CE293E00E94500568EE33
:1012400073E080E090E00E9472020E94AB0400E034
:1012500010E0C1E0D0E08FB7F89480906D029090DC
:101260006E02A0906F02B09070028FBF80917902E1
:1012700090917A02A0917B02B0917C02A501940129
:10128000281B390B4A0B5B0BDA01C901893B3BE098
:101290009307A105B10590F420917702309178026F
:1012A000232B61F4D0937802C093770210927602D8
:1012B000109275021092740210927302AC01BD017B
:1012C000495B5B4061097109483E53406105710506
:1012D00090F42091750230917602232B61F4D09323
:1012E0007602C093750210927802109277021092E3
:1012F000740210927302805A9F40A109B109893E7D
:101300009340A105B10508F05DC0809173029091F2
:101310007402892B09F056C0D0937402C0937302F3
:101320001092780210927702109276021092750253
:1013300083E00E94C501019709F044C061E08AE0A2
:101340000E94EE0166E571E08DE792E00E94500593
:101350000E94FE046DE671E08DE792E00E94500568
:101360000E94FE046AE871E08DE792E00E94500559
:1013700040912A0350912B0360912603709127031B
:101380008DE792E00E948F000E94FE040E94AB0451
:1013900061E081E00E94B6046AE871E08CE293E0CB
:1013A0000E94500561E08EE00E94B60440912A033D
:1013B00050912B0360912603709127038CE293E0F8
:1013C0000E948F004091790250917A0260917B02D5
:1013D00070917C02D501C40189589341A109B109DA
:1013E000841B950BA60BB70B883C9105A105B10595
:1013F00040F48092790290927A02A0927B02B0929D
:101400007C026091770289E00E94EE016091750292
:1014100086E00E94EE016091730288E00E94EE0176
:1014200088E00E94C501019751F460E080E00E94CD
:10143000B60465E971E08CE293E00E9450056CE926
:1014400071E08DE792E00E94500560EA71E08DE75F
:1014500092E00E945005C0907102D09072020D2C53
:10146000000CEE08FF082AE0B701A601F7FE0DC048
:101470006DE28DE792E00E942F0144275527BA01C3
:101480004C195D096E097F092AE08DE792E00E9400
:1014900004050E94FE0489E00E94C501019751F4F1
:1014A00060E080E00E94B60462EA71E08CE293E0C2
:1014B0000E94500586E00E94C501019751F460E04A
:1014C00080E00E94B60467EA71E08CE293E00E943B
:1014D000500560E08AE00E94B6042AE0B501A4014C
:1014E0008CE293E00E940405809171029091720257
:1014F000019690937202809371020115110509F40F
:10150000AACE0E94F900882309F4A5CE0E9400000B
:10151000A2CE8091260390912703009711F00C949E
:101520008D0B08952F923F924F925F926F927F9210
:101530008F929F92AF92BF92CF92DF92EF92FF92E3
:101540000F931F93CF93DF93CDB7DEB7CA1BDB0B8F
:101550000FB6F894DEBF0FBECDBF09942A88398834
:1015600048885F846E847D848C849B84AA84B9843B
:10157000C884DF80EE80FD800C811B81AA81B98147
:10158000CE0FD11D0FB6F894DEBF0FBECDBFED015B
:101590000895A1E21A2EAA1BBB1BFD010DC0AA1FB4
:1015A000BB1FEE1FFF1FA217B307E407F50720F0CC
:1015B000A21BB30BE40BF50B661F771F881F991F47
:1015C0001A9469F760957095809590959B01AC0190
:1015D000BD01CF010895EE0FFF1F0590F491E02D9E
:1015E00009940F931F93CF93DF938230910510F4EA
:1015F00082E090E0E0913A03F0913B0330E020E09C
:10160000B0E0A0E0309799F42115310509F44AC003
:10161000281B390B24303105D8F58A819B8161154F
:10162000710589F1FB0193838283FE0111C0408122
:1016300051810281138148175907E0F04817590773
:1016400099F4109761F012960C93129713961C93CD
:101650003296CF01DF91CF911F910F9108950093A2
:101660003A0310933B03F4CF2115310551F0421793
:10167000530738F0A901DB019A01BD01DF01F80130
:10168000C1CFEF01F9CF90933B0380933A03CDCFC5
:10169000FE01E20FF31F81939193225031093983A8
:1016A0002883D7CF2091380330913903232B41F47D
:1016B00020910201309103013093390320933803C4
:1016C00020910001309101012115310541F42DB720
:1016D0003EB74091040150910501241B350BE09168
:1016E0003803F0913903E217F307A0F42E1B3F0BE8
:1016F0002817390778F0AC014E5F5F4F2417350784
:1017000048F04E0F5F1F5093390340933803819385
:1017100091939FCFF0E0E0E09CCFCF93DF930097D1
:10172000E9F0FC01329713821282A0913A03B09142
:101730003B03ED0130E020E01097A1F420813181DE
:10174000820F931F209138033091390328173907EE
:1017500009F061C0F0933903E0933803DF91CF9132
:101760000895EA01CE17DF07E8F54A815B819E0103
:1017700041155105B1F7E901FB83EA83499159917C
:10178000C40FD51FEC17FD0761F48081918102968B
:10179000840F951FE90199838883828193819B83BC
:1017A0008A83F0E0E0E012968D919C911397009768
:1017B000B9F52D913C911197CD010296820F931F9F
:1017C00020913803309139032817390739F63097BB
:1017D00051F510923B0310923A03B0933903A09352
:1017E0003803BCCFD383C28340815181840F951FBE
:1017F000C817D90761F44E5F5F4F88819981480F00
:10180000591F518340838A819B8193838283211551
:10181000310509F0B0CFF0933B03E0933A039ECF3C
:10182000FD01DC01C0CF13821282D7CFB0E0A0E06F
:10183000ECE1FCE00C94940A8C01009751F4CB018C
:101840000E94F10A8C01C801CDB7DEB7E0E10C942B
:10185000B00AFC01E60FF71F9C0122503109E21784
:10186000F30708F49DC0D901CD91DC911197C617FB
:10187000D70798F0C530D10530F3CE01049786170D
:10188000970708F3C61BD70B2297C193D1936D938B
:101890007C93CF010E948D0BD6CF5B01AC1ABD0AA1
:1018A0004C018C0E9D1EA0913A03B0913B03512C2C
:1018B000412CF12CE12C109731F580913803909157
:1018C00039038815990509F05CC04616570608F0DB
:1018D00058C08091000190910101009741F48DB7AB
:1018E0009EB74091040150910501841B950BE817A8
:1018F000F90708F055C0F0933903E0933803F90174
:1019000071836083A0CF8D919C91119712966C90FA
:10191000129713967C901397A815B90559F56C0189
:1019200042E0C40ED11CCA14DB0420F1AC014A19F8
:101930005B09DA011296159780F0628273825183F7
:101940004083D9016D937C93E114F10471F0D701C8
:101950001396FC93EE93129776CF22968C0F9D1FD1
:10196000F90191838083F301EFCFF0933B03E09380
:101970003A0369CF4816590608F42C017D01D301BA
:101980009ACFCB010E94F10A7C01009749F0AE0189
:10199000B8010E94D30CC8010E948D0B870153CF60
:1019A00010E000E050CFFB01DC0102C001900D927D
:1019B00041505040D8F70895FB01DC0101900D9291
:1019C0000020E1F7089510E0C2E6D0E004C0FE0177
:1019D0000E94EB0A2196C336D107C9F7F894FFCFCE
:1019E00000003C0380000000400014005400000090
:1019F00000002F018F00BC007C01ED00CB00DF0058
:101A0000000000006203350378040B032E031B0360
:101A10000C0300000000E9048F007804A4020D0A02
:101A2000005444434333343500536D617274205481
:101A3000726166696300526564206C69676874202E
:101A400076696F6F6C6174696F6E3A2000436170E4
:101A5000747572696E672056656869636C6520509D
:101A60006C617465206E6F3A2000504C41544520E3
:101A70004E4F3A200053544F503A20006F6B3A00BB
:0E1A80000900474F3A20005741524E3A2000CD
:107E0000112484B714BE81FFF0D085E080938100F7
:107E100082E08093C00088E18093C10086E0809377
:107E2000C20080E18093C4008EE0C9D0259A86E02C
:107E300020E33CEF91E0309385002093840096BBD3
:107E4000B09BFECF1D9AA8958150A9F7CC24DD24C4
:107E500088248394B5E0AB2EA1E19A2EF3E0BF2EE7
:107E6000A2D0813461F49FD0082FAFD0023811F036
:107E7000013811F484E001C083E08DD089C08234E0
:107E800011F484E103C0853419F485E0A6D080C0E4
:107E9000853579F488D0E82EFF2485D0082F10E0AE
:107EA000102F00270E291F29000F111F8ED06801E7
:107EB0006FC0863521F484E090D080E0DECF843638
:107EC00009F040C070D06FD0082F6DD080E0C81688
:107ED00080E7D80618F4F601B7BEE895C0E0D1E017
:107EE00062D089930C17E1F7F0E0CF16F0E7DF06D8
:107EF00018F0F601B7BEE89568D007B600FCFDCFD4
:107F0000A601A0E0B1E02C9130E011968C91119780
:107F100090E0982F8827822B932B1296FA010C0160
:107F200087BEE89511244E5F5F4FF1E0A038BF0790
:107F300051F7F601A7BEE89507B600FCFDCF97BE46
:107F4000E89526C08437B1F42ED02DD0F82E2BD052
:107F50003CD0F601EF2C8F010F5F1F4F84911BD097
:107F6000EA94F801C1F70894C11CD11CFA94CF0C13
:107F7000D11C0EC0853739F428D08EE10CD085E9AC
:107F80000AD08FE07ACF813511F488E018D01DD067
:107F900080E101D065CF982F8091C00085FFFCCF94
:107FA0009093C60008958091C00087FFFCCF809118
:107FB000C00084FD01C0A8958091C6000895E0E648
:107FC000F0E098E1908380830895EDDF803219F02E
:107FD00088E0F5DFFFCF84E1DECF1F93182FE3DFCA
:107FE0001150E9F7F2DF1F91089580E0E8DFEE27F6
:047FF000FF270994CA
:027FFE00040479
:00000001FF
