:100000000C9463000C948B000C948B000C948B006C
:100010000C948B000C948B000C948B000C948B0034
:100020000C948B000C948B000C948B000C948B0024
:100030000C948B000C948B000C948B000C948B0014
:100040000C94B9040C948B000C9429050C940305B2
:100050000C948B000C948B000C948B000C948B00F4
:100060000C945B050C948B0000000000240027001A
:100070002A0000000000250028002B0000000000DE
:1000800023002600290004040404040404040202DA
:100090000202020203030303030301020408102007
:1000A0004080010204081020010204081020000012
:1000B0000008000201000003040700000000000027
:1000C00000008906DC0911241FBECFEFD8E0DEBF97
:1000D000CDBF23E0AEEAB1E001C01D92A733B20765
:1000E000E1F711E0A0E0B1E0E4E9F8E102C0059039
:1000F0000D92AE3AB107D9F710E0C2E6D0E004C0E5
:100100002197FE010E943B0AC136D107C9F70E9420
:100110003E070C943D0C0C940000833081F028F4D1
:10012000813099F08230A1F008958730A9F08830AD
:10013000B9F08430D1F4809180008F7D03C080912C
:1001400080008F7780938000089584B58F7702C0F8
:1001500084B58F7D84BD08958091B0008F7703C0F2
:100160008091B0008F7D8093B0000895CF93DF938E
:10017000282F30E0F901E255FF4F8491F901E6564E
:10018000FF4FD491F901EA57FF4FC491CC2391F06E
:1001900081110E948D00EC2FF0E0EE0FFF1FE4585C
:1001A000FF4FA591B491EC91ED2381E090E021F413
:1001B00080E002C080E090E0DF91CF9108951F932E
:1001C000CF93DF93282F30E0F901E255FF4F849160
:1001D000F901E656FF4FD491F901EA57FF4FC49158
:1001E000CC23C1F0162F81110E948D00EC2FF0E07E
:1001F000EE0FFF1FEE58FF4FA591B4919FB7F894F3
:10020000111104C08C91D095D82302C0EC91DE2B43
:10021000DC939FBFDF91CF911F910895CF93DF9320
:1002200090E0FC01E656FF4F2491FC01EA57FF4F96
:100230008491882361F190E0880F991FFC01E859AF
:10024000FF4FC591D491FC01EE58FF4FA591B49199
:10025000611109C09FB7F894888120958223888313
:10026000EC912E230BC0623061F49FB7F894888123
:10027000322F309583238883EC912E2B2C939FBFB4
:1002800006C08FB7F894E8812E2B28838FBFDF91AB
:10029000CF9108953FB7F8948091730290917402C2
:1002A000A0917502B091760226B5A89B05C02F3F9C
:1002B00019F00196A11DB11D3FBFBA2FA92F982F8C
:1002C0008827820F911DA11DB11DBC01CD0142E007
:1002D000660F771F881F991F4A95D1F708958F924F
:1002E0009F92AF92BF92CF92DF92EF92FF926B01FB
:1002F0007C010E944A014B015C01C114D104E1045C
:10030000F104F1F00E944A01DC01CB01881999093E
:10031000AA09BB09883E9340A105B10570F321E00D
:10032000C21AD108E108F10888EE880E83E0981E11
:10033000A11CB11CC114D104E104F10419F7DDCFF3
:10034000FF90EF90DF90CF90BF90AF909F908F90F5
:10035000089508950895CF92DF92EF92FF920F9340
:100360001F93CF93DF936C017A018B01C0E0D0E043
:10037000CE15DF0581F0D8016D918D01D601ED918B
:10038000FC910190F081E02DC6010995892B11F0B7
:100390002196EECF7E01C701DF91CF911F910F9182
:1003A000FF90EF90DF90CF900895FC01538D448D26
:1003B000252F30E0842F90E0821B930B541710F010
:1003C000CF96089501970895FC01918D828D98171D
:1003D00061F0828DDF01A80FB11D5D968C91928D29
:1003E0009F5F9F73928F90E008958FEF9FEF089526
:1003F000FC01918D828D981731F0828DE80FF11DEF
:10040000858D90E008958FEF9FEF0895FC01918D09
:10041000228D892F90E0805C9F4F821B91098F7302
:100420009927089587E792E00E94060221E0892B30
:1004300009F420E0822F0895FC01848DDF01A80FCC
:10044000B11DA35ABF4F2C91848D90E001968F73FC
:100450009927848FA689B7892C93A089B1898C911B
:10046000837080648C93938D848D981306C002886A
:10047000F389E02D80818F7D80830895EF92FF9234
:100480000F931F93CF93DF93EC0181E0888F9B8DB7
:100490008C8D981305C0E889F989808185FD26C077
:1004A000F62E0B8D10E00F5F1F4F0F731127E02EFC
:1004B0008C8DE8120CC00FB607FCFACFE889F989D9
:1004C000808185FFF5CFCE010E941C02F1CF8B8D7C
:1004D000FE01E80FF11DE35AFF4FF0829FB7F89439
:1004E0000B8FEA89FB89808180620AC09FB7F894EC
:1004F000EE89FF896083E889F9898081837080644F
:1005000080839FBF81E090E0DF91CF911F910F9199
:10051000FF90EF900895CF93DF93EC01888D8823AF
:10052000C9F0EA89FB89808185FD05C0A889B98960
:100530008C9186FD0FC00FB607FCF5CF808185FF3B
:10054000F2CFA889B9898C9185FFEDCFCE010E94A9
:100550001C02E7CFDF91CF91089580E090E0892BD6
:1005600029F00E94120281110C940000089585ED7B
:100570008093BC008091BC0084FDFCCF10925D0292
:1005800008954091EE01262F30E0240F311D2132D5
:100590003105DCF420915D022430C9F4FC0180E0D7
:1005A00090E0861758F43091EE012191DC01A253BE
:1005B000BE4FA30FB11D2C930196F3CF8091EE0196
:1005C000680F6093EE0180E0089581E0089582E075
:1005D00008950895E091610280916002E81730F477
:1005E000F0E0E255FE4F808190E008958FEF9FEF9D
:1005F00008959091610280916002981750F4E92F5C
:10060000F0E0E255FE4F208130E09F5F9093610261
:1006100002C02FEF3FEFC90108958091600290E082
:1006200020916102821B91090895CF92DF92EF928F
:10063000FF920F931F93CF93DF937C01CB018A012D
:1006400020913502222389F0EB016B01C40ED51EE7
:10065000CC15DD0569F06991D701ED91FC91019010
:10066000F081E02DC7010995F3CF642F0E94C102EC
:10067000C801DF91CF911F910F91FF90EF90DF9014
:10068000CF900895CF93DF931F92CDB7DEB76983E4
:10069000209135022223D1F020915E02203240F0D9
:1006A00021E030E0FC013383228380E090E015C03C
:1006B00080915F02E82FF0E0EA5CFD4F9981908322
:1006C0008F5F80935F0280935E0205C061E0CE0180
:1006D00001960E94C10281E090E00F90DF91CF91DE
:1006E0000895CF93FC01C48121E020933502C0938B
:1006F000560210925F0210925E028485682B84E19C
:1007000093E00E94420390915E02913208F045C04E
:1007100080915D028111FCCF82E080935D0281E0D7
:1007200080935C028FEF8093340210923302909397
:100730003202A6E3B2E0E2E1F2E080E0981721F0B5
:100740002D9121938F5FFACF1092110280911102A7
:10075000CC0FC82BC093110280915B02813061F4F1
:1007600010925B02809111028093BB008091BC00CB
:1007700083FDF8CF85EC01C085EE8093BC008091AD
:100780005D028230E1F3809134028F3F31F080913D
:100790003402803211F08091340210925F02109284
:1007A0005E0210923502CF9108950F931F93CF935D
:1007B0008C01C62F0E9471036C2F6460C8010E94D7
:1007C00071036C2F6B7FC8010E94710383EC90E072
:1007D0000197F1F7CF911F910F9108950F931F93F8
:1007E000CF93DF938C01C62FD42F607F642B0E94A0
:1007F000D50380E1C89FB00111246D2BC801DF91A2
:10080000CF911F910F910C94D503CF93DF93CDB768
:10081000DEB728970FB6F894DEBF0FBECDBF98E0C5
:10082000E6E0F1E0DE01119601900D929A95E1F774
:1008300090912E03961710F46FEF690FFE01319619
:10084000E60FF11DE60FF11D6081680F606840E062
:1008500086E293E028960FB6F894DEBF0FBECDBFB8
:10086000DF91CF910C94EE0340E061E086E293E0EB
:100870000E94EE038BE39FE10197F1F780912F0334
:10088000882321F060E080E00C940504089541E0A5
:100890000E94EE0381E090E00895089580E090E0EA
:1008A00008956115710579F0FB0101900020E9F7C9
:1008B0003197AF01461B570BDC01ED91FC91028093
:1008C000F381E02D099480E090E008956EE371E0FB
:1008D00087E792E00C9451048F929F92AF92BF925F
:1008E000EF92FF920F931F93CF93DF93CDB7DEB7B5
:1008F000A1970FB6F894DEBF0FBECDBF7C01FA0101
:10090000CB0119A2223008F42AE08E010F5D1F4F9F
:10091000822E912CA12CB12CBF01A50194010E9423
:10092000190AF901CA01015011096A3014F4605D15
:1009300001C0695CD8016C93232B242B252B61F714
:10094000B801C7010E945104A1960FB6F894DEBF0A
:100950000FBECDBFDF91CF911F910F91FF90EF9010
:10096000BF90AF909F908F9008950C9451040E9477
:10097000280C1F920F920FB60F9211242F933F93C2
:100980008F939F93AF93BF9380916F02909170026A
:10099000A0917102B091720230916E0223E0230F98
:1009A0002D3720F40196A11DB11D05C026E8230FA7
:1009B0000296A11DB11D20936E0280936F02909349
:1009C0007002A0937102B0937202809173029091B1
:1009D0007402A0917502B09176020196A11DB11D1D
:1009E0008093730290937402A0937502B093760281
:1009F000BF91AF919F918F913F912F910F900FBE1B
:100A00000F901F9018951F920F920FB60F921124FE
:100A10002F933F934F935F936F937F938F939F9306
:100A2000AF93BF93EF93FF9387E792E00E941C027E
:100A3000FF91EF91BF91AF919F918F917F916F91B6
:100A40005F914F913F912F910F900FBE0F901F908C
:100A500018951F920F920FB60F9211242F938F9318
:100A60009F93EF93FF93E0918702F091880280813A
:100A7000E0918D02F0918E0282FD12C090818091F2
:100A800090028F5F8F7320919102821751F0E09155
:100A90009002F0E0E958FD4F958F8093900201C0DD
:100AA0008081FF91EF919F918F912F910F900FBEB9
:100AB0000F901F9018951F920F920FB60F9211244E
:100AC0002F933F934F935F936F937F938F939F9356
:100AD000AF93BF93EF93FF938091B900887F8036E7
:100AE00009F49CC068F5883209F45BC090F4803149
:100AF00009F454C038F4882309F4F6C0883009F4A6
:100B00004DC0F6C0883109F44CC0803209F45DC094
:100B1000EFC0803409F468C048F4803309F455C04C
:100B2000883309F0E5C080933402D8C0803509F4D9
:100B30004FC0883509F45DC0883409F0D9C0D6C0EB
:100B4000883909F4C7C0A8F4883709F467C038F4B5
:100B5000883609F463C0803709F460C0C9C088389A
:100B600009F4B8C0803909F45FC0803809F0C0C00A
:100B70005BC0803B09F486C038F4803A09F466C053
:100B8000883A09F47FC0B4C0803C09F4A7C0883C0F
:100B900009F4A4C0883B09F48AC0AAC0809111025C
:100BA00010C09091330280913202981770F5E09155
:100BB000330281E08E0F80933302F0E0EE5EFD4F52
:100BC00080818093BB0085EC86C0809334028EC008
:100BD000E091330281E08E0F809333028091BB005D
:100BE000F0E0EE5EFD4F80839091330280913202FF
:100BF0006EC0E091330281E08E0F809333028091CA
:100C0000BB00F0E0EE5EFD4F808380915C028111BD
:100C10006DC081E080935B0284EA61C083E08093D1
:100C20005D0210921002CFCF80911002803208F046
:100C300051C0E091100281E08E0F809310028091EC
:100C4000BB00F0E0E051FE4F8083BDCF85EC809388
:100C5000BC0010925D0280911002803230F4E0916D
:100C60001002F0E0E051FE4F10826091100270E03F
:100C7000E0915702F091580280EF91E009951092AF
:100C8000100236C084E080935D021092EF01109252
:100C9000EE01E0915902F0915A0209958091EE011E
:100CA000811105C081E08093EE011092CE01E091A8
:100CB000EF0181E08E0F8093EF01F0E0E253FE4FF1
:100CC00080818093BB009091EF018091EE01981795
:100CD00008F479CF85E88093BC000AC085EC809346
:100CE000BC0010925D0204C0109234020E94B70250
:100CF000FF91EF91BF91AF919F918F917F916F91F4
:100D00005F914F913F912F910F900FBE0F901F90C9
:100D1000189510927A021092790288EE93E0A0E082
:100D2000B0E080937B0290937C02A0937D02B0930D
:100D30007E0222E131E0309378022093770225ECA5
:100D400030E0309384022093830224EC30E030932F
:100D500086022093850220EC30E0309388022093B5
:100D6000870221EC30E030938A022093890222EC42
:100D700030E030938C0220938B0226EC30E03093ED
:100D80008E0220938D021092900210929102109286
:100D900092021092930210921703109216038093FE
:100DA000180390931903A0931A03B0931B0384E2D2
:100DB00091E09093150380931403109229031092ED
:100DC000280386E391E090932703809326031092F3
:100DD0002F0380E280932A0380E18093300382E036
:100DE000809331031092320310922103109220035A
:100DF00010922303109222031092250310922403D1
:100E000068E070E080E090E00E94620B009799F04B
:100E1000909321038093200327E030E03093230355
:100E2000209322032091240330912503232BC1F426
:100E3000FC01108215C0809120039091210300973E
:100E400011F00E94D90A10922103109220031092EF
:100E50002503109224031092230310922203089575
:100E600087E090E0909325038093240361E471E090
:100E700080912003909121030C94360C789484B5D2
:100E8000826084BD84B5816084BD85B5826085BD86
:100E900085B5816085BD80916E00816080936E0014
:100EA0001092810080918100826080938100809106
:100EB00081008160809381008091800081608093B7
:100EC00080008091B10084608093B1008091B00077
:100ED00081608093B00080917A00846080937A0072
:100EE00080917A00826080937A0080917A0081609C
:100EF00080937A0080917A00806880937A001092C3
:100F0000C10010926302109262021092610210926C
:100F1000600210925F0210925E0210925D0281E008
:100F200080935C0210925B0261E082E10E94DF002C
:100F300061E083E10E94DF008091B9008E7F8093A1
:100F4000B9008091B9008D7F8093B90088E48093C7
:100F5000B80085E48093BC0089EA91E090935A023E
:100F6000809359028AEA91E0909358028093570245
:100F700010922B0380913103823018F098E0909307
:100F80002B0380932E0362E370E080E090E00E94E8
:100F90006F016091320386E293E00E94710368EE74
:100FA00073E080E090E00E946F0160E386E293E0EE
:100FB0000E94D503CBE4D6E4CE010197F1F760E3BC
:100FC00086E293E00E94D5032197F1F760E386E281
:100FD00093E00E94D50383E592E00197F1F760E288
:100FE00086E293E00E94D50360912B03606240E0AB
:100FF00086E293E00E94EE0384E080932C0340E0BD
:101000006CE086E293E00E94EE030E94340412E05A
:1010100010932D0340E066E086E293E00E94EE0329
:1010200040E062E086E293E00E94EE03CBE3DFE182
:10103000CE010197F1F788E08093320360E086E209
:1010400093E00E94710340E062E086E293E00E9438
:10105000EE032197F1F70E944A0160E083E00E94CD
:101060000E0161E088E00E940E0161E08AE00E94CA
:101070000E0161E089E00E940E0161E086E00E94BD
:101080000E01E0918702F09188021083E0918302C3
:10109000F09184021082E0918502F09186028FEC3B
:1010A000808310928F02E0918B02F0918C0286E097
:1010B0008083E0918902F0918A028081806180833F
:1010C000E0918902F0918A02808188608083E091BA
:1010D0008902F0918A02808180688083E091890290
:1010E000F0918A0280818F7D80830E94340469E4BC
:1010F00071E086E293E00E94B50468EE73E080E060
:1011000090E00E946F010E943404C1E0D0E08FB7EC
:10111000F89480906F0290907002A0907102B0904D
:1011200072028FBF80916A0290916B02A0916C0253
:10113000B0916D02A5019401281B390B4A0B5B0B82
:10114000DA01C901893B3BE09307A105B10590F4A1
:101150002091680230916902232B61F4D0936902D7
:10116000C0936802109267021092660210926502A4
:1011700010926402AC01BD01495B5B4061097109D9
:10118000483E53406105710590F42091660230910C
:101190006702232B61F4D0936702C093660210921A
:1011A0006902109268021092650210926402805ADD
:1011B0009F40A109B109893E9340A105B105C0F442
:1011C0008091640290916502892B91F4D09365021D
:1011D000C093640210926902109268021092670232
:1011E0001092660283E00E94B600019709F49FC046
:1011F00040916A0250916B0260916C0270916D0295
:10120000D501C40189589341A109B109841B950BEB
:10121000A60BB70B883C9105A105B10540F480925F
:101220006A0290926B02A0926C02B0926D02609181
:10123000680289E00E94DF006091660286E00E94F9
:10124000DF006091640288E00E94DF0088E00E9475
:10125000B600019751F460E080E00E94050466E565
:1012600071E086E293E00E94B5046DE571E087E7E6
:1012700092E00E94B50461E671E087E792E00E9487
:10128000B504C0906202D09063020D2C000CEE08F1
:10129000FF08F7FE0EC06DE287E792E00E943E0273
:1012A00044275527BA014C195D096E097F092AE0C8
:1012B00003C02AE0B701A60187E792E00E946C0410
:1012C0000E94660489E00E94B600019751F460E034
:1012D00080E00E94050463E671E086E293E00E94EC
:1012E000B50486E00E94B600019751F460E080E00A
:1012F0000E94050468E671E086E293E00E94B5046E
:1013000060E08AE00E9405042AE0B501A40186E2BB
:1013100093E00E946C0480916202909163020196B6
:1013200090936302809362020E94AD02F0CE61E06E
:101330008AE00E94DF006FE671E087E792E00E949A
:10134000B5040E94660466E871E087E792E00E94B7
:10135000B5040E94660463EA71E087E792E00E94A8
:10136000B5044091240350912503609120037091AE
:10137000210387E792E00E94AB010E9466040E946D
:10138000340461E081E00E94050463EA71E086E2D2
:1013900093E00E94B50461E08EE00E940504409154
:1013A000240350912503609120037091210386E26C
:1013B00093E00E94AB011CCF809120039091210308
:1013C0000C94D90A2F923F924F925F926F927F9224
:1013D0008F929F92AF92BF92CF92DF92EF92FF9245
:1013E0000F931F93CF93DF93CDB7DEB7CA1BDB0BF1
:1013F0000FB6F894DEBF0FBECDBF09942A88398896
:1014000048885F846E847D848C849B84AA84B9849C
:10141000C884DF80EE80FD800C811B81AA81B981A8
:10142000CE0FD11D0FB6F894DEBF0FBECDBFED01BC
:101430000895A1E21A2EAA1BBB1BFD010DC0AA1F15
:10144000BB1FEE1FFF1FA217B307E407F50720F02D
:10145000A21BB30BE40BF50B661F771F881F991FA8
:101460001A9469F760957095809590959B01AC01F1
:10147000BD01CF010895EE0FFF1F0590F491E02DFF
:1014800009940F931F93CF93DF938230910510F44B
:1014900082E090E0E0913503F091360320E030E007
:1014A000A0E0B0E0309719F14081518102811381B1
:1014B00048175907C8F08417950769F4109731F059
:1014C00012960C93129713961C9327C00093350322
:1014D0001093360322C02115310519F04217530726
:1014E00018F49A01BD01EF01DF01F801DBCF2115EE
:1014F0003105F9F0281B390B2430310580F48A813D
:101500009B816115710521F0FB019383828304C0E7
:101510009093360380933503FE01329644C0FE015A
:10152000E20FF31F8193919322503109398328836D
:101530003AC02091330330913403232B41F420919E
:10154000020130910301309334032093330320913F
:101550000001309101012115310541F42DB73EB74D
:101560004091040150910501241B350BE091330398
:10157000F0913403E217F307A0F42E1B3F0B28175A
:10158000390778F0AC014E5F5F4F2417350748F0FC
:101590004E0F5F1F50933403409333038193919315
:1015A00002C0E0E0F0E0CF01DF91CF911F910F91F9
:1015B0000895CF93DF93009709F481C0FC0132971F
:1015C00013821282A0913503B0913603109781F4F3
:1015D00020813181820F931F209133033091340396
:1015E0002817390751F5F0933403E093330367C0AC
:1015F000ED0120E030E0CE17DF0740F44A815B8147
:101600009E0141155105F1F0EA01F5CFD383C28364
:1016100040815181840F951FC817D90759F48881DB
:101620009981840F951F0296918380838A819B8183
:10163000938382832115310529F4F0933603E093D7
:1016400035033DC0E901FB83EA8349915991C40FF9
:10165000D51FEC17FD0761F480819181840F951FE0
:101660000296E90199838883828193819B838A838F
:10167000E0E0F0E012968D919C911397009719F09D
:10168000FD01DC01F7CF8D919C9111979D012E5F9B
:101690003F4F820F931F209133033091340328175B
:1016A000390769F4309729F4109236031092350304
:1016B00002C013821282B0933403A0933303DF91EC
:1016C000CF910895A0E0B0E0E8E6FBE00C94E609D5
:1016D000EC01009721F4CB010E94410AB4C0FC0147
:1016E000E60FF71F9C0122503109E217F30708F4B7
:1016F000A8C0D9010D911C91119706171707B0F0DA
:101700000530110508F49BC0C80104978617970798
:1017100008F495C002501109061B170B0193119391
:101720006D937C93CF010E94D90A89C05B01A01AF6
:10173000B10A4C01800E911EA0913503B091360381
:10174000612C712CE12CF12C109709F446C08D917D
:101750009C911197A815B905B1F56C0142E0C40E32
:10176000D11CCA14DB0478F14C018A189B0864016F
:1017700042E0C40ED11C1296BC9012971396AC9105
:10178000B5E0CB16D10440F0B282A383918280826F
:10179000D9016D937C9309C00E5F1F4F800F911F7D
:1017A000F90191838083EB2DFA2FE114F10431F0DC
:1017B000D7011396FC93EE93129741C0F093360332
:1017C000E09335033CC06816790608F43C017D01BE
:1017D00012960D90BC91A02DB7CF809133039091BC
:1017E000340388169906E1F466167706C8F48091EA
:1017F000000190910101009741F48DB79EB740918F
:10180000040150910501841B950BE817F907C8F4F2
:10181000F0933403E0933303F901718360830FC0C5
:10182000CB010E94410A7C01009759F0A801BE013A
:101830000E942D0CCE010E94D90AC70104C0CE011E
:1018400002C080E090E0CDB7DEB7EEE00C94020A73
:1018500081E090E0F8940C943D0CFB01DC0102C0A7
:1018600001900D9241505040D8F70895FB01DC01E2
:1018700001900D920020E1F7089510E0C2E6D0E05B
:1018800004C0FE010E943B0A2196C336D107C9F766
:04189000F894FFCFFA
:1018940000003703800000004000140054000000E2
:1018A40000003E02AB01D5018B020602E401F801FF
:1018B40000000000420315034E04E9020D03F9027F
:1018C400EA02000000004704AB014E044D040D0A77
:1018D400005444434333343500536D6172742054CF
:1018E40072616669630053544F503A20006F6B3A3B
:1018F400000900474F3A20005741524E3A20005207
:101904006564206C696768742076696F6F6C6174B4
:10191400696F6E3A2000436170747572696E672056
:1019240056656869636C6520506C617465206E6FE0
:0E1934003A2000504C415445204E4F3A2000BE
:107800000C94343C0C94513C0C94513C0C94513CE1
:107810000C94513C0C94513C0C94513C0C94513CB4
:107820000C94513C0C94513C0C94513C0C94513CA4
:107830000C94513C0C94513C0C94513C0C94513C94
:107840000C94513C0C94513C0C94513C0C94513C84
:107850000C94513C0C94513C0C94513C0C94513C74
:107860000C94513C0C94513C11241FBECFEFD8E036
:10787000DEBFCDBF11E0A0E0B1E0ECE9FFE702C060
:1078800005900D92A230B107D9F712E0A2E0B1E065
:1078900001C01D92AD30B107E1F70E942D3D0C945F
:1078A000CC3F0C94003C982F959595959595959582
:1078B000905D8F708A307CF0282F295A8091C0000B
:1078C00085FFFCCF9093C6008091C00085FFFCCF60
:1078D0002093C6000895282F205DF0CF982F809127
:1078E000C00085FFFCCF9093C6000895EF92FF92F1
:1078F0000F931F93EE24FF2487018091C00087FD22
:1079000017C00894E11CF11C011D111D81E4E8164B
:1079100082E4F8068FE0080780E0180770F3E09132
:107920000401F091050109958091C00087FFE9CF1E
:107930008091C6001F910F91FF90EF9008950E94D3
:10794000763C982F8091C00085FFFCCF9093C600B5
:1079500091362CF490330CF09053892F089597555D
:10796000892F08951F930E949F3C182F0E949F3CCF
:107970001295107F810F1F9108951F93182F882350
:1079800021F00E94763C1150E1F71F9108951F935A
:10799000182F0E94763C803249F0809103018F5F5E
:1079A000809303018530C1F01F9108958091C0003C
:1079B00085FFFCCF84E18093C6008091C00085FFE5
:1079C000FCCF1093C6008091C00085FFFCCF80E102
:1079D0008093C6001F910895E0910401F091050184
:1079E00009951F9108950E94763C803241F0809164
:1079F00003018F5F80930301853081F008958091AA
:107A0000C00085FFFCCF84E18093C6008091C00058
:107A100085FFFCCF80E18093C6000895E0910401CA
:107A2000F09105010995089540E951E08823A1F0FE
:107A30002D9A28EE33E0FA013197F1F721503040CA
:107A4000D1F72D9828EE33E0FA013197F1F7215064
:107A50003040D1F7815061F708953F924F925F9285
:107A60006F927F928F929F92AF92BF92CF92DF924E
:107A7000EF92FF920F931F93CF93DF93000080E16B
:107A80008093C4001092C50088E18093C10086E015
:107A90008093C2005098589A259A81E00E94143D24
:107AA00024E1F22E9EE1E92E85E9D82E0FE0C02ECA
:107AB00010E1B12EAA24A394B1E49B2EA6E58A2E50
:107AC000F2E57F2EE0E26E2E79E4572E63E5462E36
:107AD00050E5352E0E94763C8033B1F18133B9F107
:107AE000803409F46FC0813409F476C0823409F41B
:107AF00085C0853409F488C0803531F1823521F1A3
:107B0000813511F1853509F485C0863509F48DC0BC
:107B1000843609F496C0843709F403C1853709F423
:107B200072C1863709F466C0809103018F5F80932C
:107B30000301853079F6E0910401F0910501099582
:107B40000E94763C803351F60E94F33CC3CF0E94E2
:107B5000763C803249F78091C00085FFFCCFF092DF
:107B6000C6008091C00085FFFCCF9092C600809136
:107B7000C00085FFFCCF8092C6008091C00085FFC9
:107B8000FCCF7092C6008091C00085FFFCCF609250
:107B9000C6008091C00085FFFCCF5092C600809146
:107BA000C00085FFFCCF4092C6008091C00085FFD9
:107BB000FCCF3092C6008091C00085FFFCCFB09210
:107BC000C60088CF0E94763C863808F4BDCF0E945C
:107BD000763C0E94F33C7ECF0E94763C803809F4CC
:107BE0009CC0813809F40BC1823809F43CC1883942
:107BF00009F48FC080E00E94C73C6CCF84E10E94F2
:107C0000BD3C0E94F33C66CF85E00E94BD3C0E94D3
:107C1000F33C60CF0E94763C809306010E94763C44
:107C2000809307010E94F33C55CF0E94763C80333D
:107C300009F41DC183E00E94BD3C80E00E94C73C66
:107C400049CF0E94763C809309020E94763C809343
:107C5000080280910C028E7F80930C020E94763C79
:107C6000853409F415C18091080290910902892B8D
:107C700089F000E010E00E94763CF801E85FFE4FDA
:107C800080830F5F1F4F80910802909109020817AF
:107C9000190788F30E94763C803209F045CF809125
:107CA0000C0280FF01C16091060170910701660F0F
:107CB000771F7093070160930601A0910802B091AD
:107CC00009021097C9F0E8E0F1E09B01AD014E0F09
:107CD0005F1FF999FECF32BD21BD819180BDFA9A17
:107CE000F99A2F5F3F4FE417F50799F76A0F7B1F4B
:107CF00070930701609306018091C00085FFFCCF5F
:107D0000F092C6008091C00085FFFCCFB092C60003
:107D1000E1CE83E00E94C73CDDCE82E00E94C73CFA
:107D2000D9CE0E94763C809309020E94763C8093D3
:107D300008028091060190910701880F991F909386
:107D40000701809306010E94763C853409F4A6C0A1
:107D500080910C028E7F80930C020E94763C8032D0
:107D600009F0B8CE8091C00085FFFCCFF092C6002C
:107D7000609108027091090261157105B9F140E046
:107D800050E080910C02A82FA170B82FB27011C0E2
:107D9000BB2309F45CC0E0910601F0910701319624
:107DA000F0930701E09306014F5F5F4F46175707B7
:107DB000E8F4AA2369F3F999FECF209106013091E6
:107DC000070132BD21BDF89A90B58091C00085FFB2
:107DD000FCCF9093C6002F5F3F4F30930701209355
:107DE00006014F5F5F4F4617570718F38091C00099
:107DF00085FDE5CE8091C00085FFF8CFE0CE81E023
:107E00000E94C73C67CE0E94763C803209F08CCE3F
:107E10008091C00085FFFCCFF092C6008091C00029
:107E200085FFFCCFE092C6008091C00085FFFCCFAB
:107E3000D092C6008091C00085FFFCCFC092C600E2
:107E40008091C00085FFFCCFB092C60043CEE09188
:107E50000601F091070194918091C00085FFFCCF4D
:107E60009093C6009CCF80E10E94C73C33CE0E9415
:107E7000763C0E94763C182F0E94763C112309F430
:107E800083C0113009F484C08FE00E94C73C22CE29
:107E900080910C02816080930C02E5CE80910C02EF
:107EA000816080930C0259CF809107018823880F4D
:107EB000880B8A2180930B02809106019091070123
:107EC000880F991F90930701809306018091080203
:107ED00080FF09C080910802909109020196909359
:107EE000090280930802F894F999FECF1127E091D6
:107EF0000601F0910701C8E0D1E08091080290915D
:107F00000902103091F40091570001700130D9F34B
:107F100003E000935700E89500915700017001308D
:107F2000D9F301E100935700E89509901990009169
:107F3000570001700130D9F301E000935700E89534
:107F40001395103498F011270091570001700130FB
:107F5000D9F305E000935700E895009157000170B0
:107F60000130D9F301E100935700E895329602976A
:107F700009F0C7CF103011F00296E5CF112480919F
:107F8000C00085FFB9CEBCCE8EE10E94C73CA2CD19
:0C7F900085E90E94C73C9ECDF894FFCF0D
:027F9C00800063
:040000030000780081
:00000001FF
